{
  "contracts/UniversalDeployer2.sol": {
    "UniversalDeployer2": {
      "abi": [
        {
          "anonymous": true,
          "inputs": [
            {
              "indexed": false,
              "internalType": "address",
              "name": "_addr",
              "type": "address"
            }
          ],
          "name": "Deploy",
          "type": "event"
        },
        {
          "inputs": [
            {
              "internalType": "bytes",
              "name": "_creationCode",
              "type": "bytes"
            },
            {
              "internalType": "uint256",
              "name": "_instance",
              "type": "uint256"
            }
          ],
          "name": "deploy",
          "outputs": [],
          "stateMutability": "payable",
          "type": "function"
        }
      ],
      "evm": {
        "bytecode": {
          "linkReferences": {},
          "object": "608060405234801561001057600080fd5b5061013d806100206000396000f3fe60806040526004361061001e5760003560e01c80639c4ae2d014610023575b600080fd5b6100cb6004803603604081101561003957600080fd5b81019060208101813564010000000081111561005457600080fd5b82018360208201111561006657600080fd5b8035906020019184600183028401116401000000008311171561008857600080fd5b91908080601f01602080910402602001604051908101604052809392919081815260200183838082843760009201919091525092955050913592506100cd915050565b005b60008183516020850134f56040805173ffffffffffffffffffffffffffffffffffffffff83168152905191925081900360200190a050505056fea264697066735822122033609f614f03931b92d88c309d698449bb77efcd517328d341fa4f923c5d8c7964736f6c63430007060033",
          "opcodes": "PUSH1 0x80 PUSH1 0x40 MSTORE CALLVALUE DUP1 ISZERO PUSH2 0x10 JUMPI PUSH1 0x0 DUP1 REVERT JUMPDEST POP PUSH2 0x13D DUP1 PUSH2 0x20 PUSH1 0x0 CODECOPY PUSH1 0x0 RETURN INVALID PUSH1 0x80 PUSH1 0x40 MSTORE PUSH1 0x4 CALLDATASIZE LT PUSH2 0x1E JUMPI PUSH1 0x0 CALLDATALOAD PUSH1 0xE0 SHR DUP1 PUSH4 0x9C4AE2D0 EQ PUSH2 0x23 JUMPI JUMPDEST PUSH1 0x0 DUP1 REVERT JUMPDEST PUSH2 0xCB PUSH1 0x4 DUP1 CALLDATASIZE SUB PUSH1 0x40 DUP2 LT ISZERO PUSH2 0x39 JUMPI PUSH1 0x0 DUP1 REVERT JUMPDEST DUP2 ADD SWAP1 PUSH1 0x20 DUP2 ADD DUP2 CALLDATALOAD PUSH5 0x100000000 DUP2 GT ISZERO PUSH2 0x54 JUMPI PUSH1 0x0 DUP1 REVERT JUMPDEST DUP3 ADD DUP4 PUSH1 0x20 DUP3 ADD GT ISZERO PUSH2 0x66 JUMPI PUSH1 0x0 DUP1 REVERT JUMPDEST DUP1 CALLDATALOAD SWAP1 PUSH1 0x20 ADD SWAP2 DUP5 PUSH1 0x1 DUP4 MUL DUP5 ADD GT PUSH5 0x100000000 DUP4 GT OR ISZERO PUSH2 0x88 JUMPI PUSH1 0x0 DUP1 REVERT JUMPDEST SWAP2 SWAP1 DUP1 DUP1 PUSH1 0x1F ADD PUSH1 0x20 DUP1 SWAP2 DIV MUL PUSH1 0x20 ADD PUSH1 0x40 MLOAD SWAP1 DUP2 ADD PUSH1 0x40 MSTORE DUP1 SWAP4 SWAP3 SWAP2 SWAP1 DUP2 DUP2 MSTORE PUSH1 0x20 ADD DUP4 DUP4 DUP1 DUP3 DUP5 CALLDATACOPY PUSH1 0x0 SWAP3 ADD SWAP2 SWAP1 SWAP2 MSTORE POP SWAP3 SWAP6 POP POP SWAP2 CALLDATALOAD SWAP3 POP PUSH2 0xCD SWAP2 POP POP JUMP JUMPDEST STOP JUMPDEST PUSH1 0x0 DUP2 DUP4 MLOAD PUSH1 0x20 DUP6 ADD CALLVALUE CREATE2 PUSH1 0x40 DUP1 MLOAD PUSH20 0xFFFFFFFFFFFFFFFFFFFFFFFFFFFFFFFFFFFFFFFF DUP4 AND DUP2 MSTORE SWAP1 MLOAD SWAP2 SWAP3 POP DUP2 SWAP1 SUB PUSH1 0x20 ADD SWAP1 LOG0 POP POP POP JUMP INVALID LOG2 PUSH5 0x6970667358 0x22 SLT KECCAK256 CALLER PUSH1 0x9F PUSH2 0x4F03 SWAP4 SHL SWAP3 0xD8 DUP13 ADDRESS SWAP14 PUSH10 0x8449BB77EFCD517328D3 COINBASE STATICCALL 0x4F SWAP3 EXTCODECOPY 0x5D DUP13 PUSH26 0x64736F6C63430007060033000000000000000000000000000000 "
        },
        "methodIdentifiers": {
          "deploy(bytes,uint256)": "9c4ae2d0"
        }
      }
    }
  }
}